{
  "contractName": "MarvelCharactersOracle",
  "abi": [
    {
      "anonymous": false,
      "inputs": [
        {
          "indexed": true,
          "internalType": "address",
          "name": "previousOwner",
          "type": "address"
        },
        {
          "indexed": true,
          "internalType": "address",
          "name": "newOwner",
          "type": "address"
        }
      ],
      "name": "OwnershipTransferred",
      "type": "event"
    },
    {
      "inputs": [],
      "name": "owner",
      "outputs": [
        {
          "internalType": "address",
          "name": "",
          "type": "address"
        }
      ],
      "stateMutability": "view",
      "type": "function",
      "constant": true
    },
    {
      "inputs": [],
      "name": "renounceOwnership",
      "outputs": [],
      "stateMutability": "nonpayable",
      "type": "function"
    },
    {
      "inputs": [
        {
          "internalType": "address",
          "name": "newOwner",
          "type": "address"
        }
      ],
      "name": "transferOwnership",
      "outputs": [],
      "stateMutability": "nonpayable",
      "type": "function"
    },
    {
      "inputs": [],
      "name": "testConnection",
      "outputs": [
        {
          "internalType": "bool",
          "name": "",
          "type": "bool"
        }
      ],
      "stateMutability": "pure",
      "type": "function",
      "constant": true
    },
    {
      "inputs": [],
      "name": "getAddress",
      "outputs": [
        {
          "internalType": "address",
          "name": "",
          "type": "address"
        }
      ],
      "stateMutability": "view",
      "type": "function",
      "constant": true
    },
    {
      "inputs": [
        {
          "internalType": "uint256",
          "name": "_marvelId",
          "type": "uint256"
        }
      ],
      "name": "characterExists",
      "outputs": [
        {
          "internalType": "bool",
          "name": "",
          "type": "bool"
        }
      ],
      "stateMutability": "view",
      "type": "function",
      "constant": true
    },
    {
      "inputs": [],
      "name": "getAllCharacters",
      "outputs": [
        {
          "internalType": "uint256[]",
          "name": "",
          "type": "uint256[]"
        }
      ],
      "stateMutability": "view",
      "type": "function",
      "constant": true
    },
    {
      "inputs": [
        {
          "internalType": "uint256",
          "name": "_charId",
          "type": "uint256"
        }
      ],
      "name": "getCharacterById",
      "outputs": [
        {
          "internalType": "uint256",
          "name": "",
          "type": "uint256"
        },
        {
          "internalType": "uint256",
          "name": "",
          "type": "uint256"
        },
        {
          "internalType": "string",
          "name": "",
          "type": "string"
        },
        {
          "internalType": "string",
          "name": "",
          "type": "string"
        },
        {
          "internalType": "uint256",
          "name": "",
          "type": "uint256"
        }
      ],
      "stateMutability": "view",
      "type": "function",
      "constant": true
    },
    {
      "inputs": [
        {
          "internalType": "uint256",
          "name": "_marvelId",
          "type": "uint256"
        }
      ],
      "name": "getCharacterByMarvelId",
      "outputs": [
        {
          "internalType": "uint256",
          "name": "",
          "type": "uint256"
        },
        {
          "internalType": "uint256",
          "name": "",
          "type": "uint256"
        },
        {
          "internalType": "string",
          "name": "",
          "type": "string"
        },
        {
          "internalType": "string",
          "name": "",
          "type": "string"
        },
        {
          "internalType": "uint256",
          "name": "",
          "type": "uint256"
        }
      ],
      "stateMutability": "view",
      "type": "function",
      "constant": true
    },
    {
      "inputs": [],
      "name": "getNumberOfCharacters",
      "outputs": [
        {
          "internalType": "uint256",
          "name": "",
          "type": "uint256"
        }
      ],
      "stateMutability": "view",
      "type": "function",
      "constant": true
    },
    {
      "inputs": [
        {
          "internalType": "uint256",
          "name": "_marvelId",
          "type": "uint256"
        },
        {
          "internalType": "string",
          "name": "_name",
          "type": "string"
        },
        {
          "internalType": "string",
          "name": "_description",
          "type": "string"
        },
        {
          "internalType": "uint256",
          "name": "_appearances",
          "type": "uint256"
        }
      ],
      "name": "addCharacter",
      "outputs": [
        {
          "internalType": "uint256",
          "name": "",
          "type": "uint256"
        }
      ],
      "stateMutability": "nonpayable",
      "type": "function"
    },
    {
      "inputs": [],
      "name": "addTestData",
      "outputs": [],
      "stateMutability": "nonpayable",
      "type": "function"
    }
  ],
  "bytecode": "0x608060405234801561001057600080fd5b5061002d61002261003260201b60201c565b61003a60201b60201c565b6100fe565b600033905090565b60008060009054906101000a900473ffffffffffffffffffffffffffffffffffffffff169050816000806101000a81548173ffffffffffffffffffffffffffffffffffffffff021916908373ffffffffffffffffffffffffffffffffffffffff1602179055508173ffffffffffffffffffffffffffffffffffffffff168173ffffffffffffffffffffffffffffffffffffffff167f8be0079c531659141344cd1fd0a4f28419497f9722a3daafe3b4186f6b6457e060405160405180910390a35050565b6119228061010d6000396000f3fe608060405234801561001057600080fd5b50600436106100b45760003560e01c806383e56dca1161007157806383e56dca146101815780638da5cb5b1461019f578063a212b454146101bd578063c6709af1146101c7578063e034713d146101f7578063f2fde38b1461022b576100b4565b80630d4e503b146100b95780633412a15c146100ed57806338cc48311461010b57806362d36dec14610129578063715018a61461014757806382827ae514610151575b600080fd5b6100d360048036038101906100ce9190610dbe565b610247565b6040516100e4959493929190610e93565b60405180910390f35b6100f561027e565b6040516101029190610f0f565b60405180910390f35b610113610287565b6040516101209190610f6b565b60405180910390f35b61013161028f565b60405161013e9190610f86565b60405180910390f35b61014f61029c565b005b61016b600480360381019061016691906110d6565b610324565b6040516101789190610f86565b60405180910390f35b6101896104cc565b6040516101969190611233565b60405180910390f35b6101a761059f565b6040516101b49190610f6b565b60405180910390f35b6101c56105c8565b005b6101e160048036038101906101dc9190610dbe565b6108be565b6040516101ee9190610f0f565b60405180910390f35b610211600480360381019061020c9190610dbe565b61090e565b604051610222959493929190610e93565b60405180910390f35b61024560048036038101906102409190611281565b610acc565b005b600080606080600061026b600460008881526020019081526020016000205461090e565b9450945094509450945091939590929450565b60006001905090565b600030905090565b6000600280549050905090565b6102a4610bc4565b73ffffffffffffffffffffffffffffffffffffffff166102c261059f565b73ffffffffffffffffffffffffffffffffffffffff1614610318576040517f08c379a000000000000000000000000000000000000000000000000000000000815260040161030f906112fa565b60405180910390fd5b6103226000610bcc565b565b600061032e610bc4565b73ffffffffffffffffffffffffffffffffffffffff1661034c61059f565b73ffffffffffffffffffffffffffffffffffffffff16146103a2576040517f08c379a0000000000000000000000000000000000000000000000000000000008152600401610399906112fa565b60405180910390fd5b6103ab856108be565b156103b557600080fd5b6103bf6001610c90565b60006103cb6001610ca6565b905060026040518060a001604052808381526020018881526020018781526020018681526020018581525090806001815401808255809150506001900390600052602060002090600502016000909190919091506000820151816000015560208201518160010155604082015181600201908051906020019061044f929190610cd1565b50606082015181600301908051906020019061046c929190610cd1565b506080820151816004015550506000600160028054905061048d9190611349565b90508060036000848152602001908152602001600020819055508160046000898152602001908152602001600020819055508192505050949350505050565b6060600060028054905067ffffffffffffffff8111156104ef576104ee610fab565b5b60405190808252806020026020018201604052801561051d5781602001602082028036833780820191505090505b509050600060028054905011156105985760005b60028054905081101561059657600281815481106105525761055161137d565b5b9060005260206000209060050201600001548282815181106105775761057661137d565b5b602002602001018181525050808061058e906113ac565b915050610531565b505b8091505090565b60008060009054906101000a900473ffffffffffffffffffffffffffffffffffffffff16905090565b6105d0610bc4565b73ffffffffffffffffffffffffffffffffffffffff166105ee61059f565b73ffffffffffffffffffffffffffffffffffffffff1614610644576040517f08c379a000000000000000000000000000000000000000000000000000000000815260040161063b906112fa565b60405180910390fd5b6106a5620f67ca6040518060400160405280601981526020017f5370696465722d4d616e20285065746572205061726b6572290000000000000081525060405180610160016040528061013481526020016115ca6101349139611002610324565b50610707620f666e6040518060400160405280600981526020017f44617265646576696c00000000000000000000000000000000000000000000008152506040518061022001604052806101ef81526020016116fe6101ef91396104ab610324565b5061075c620f6e8b6040518060400160405280600b81526020017f426c7565204d617276656c00000000000000000000000000000000000000000081525060405180602001604052806000815250601f610324565b506107b2620f672c6040518060400160405280600b81526020017f4d6f6f6e204b6e696768740000000000000000000000000000000000000000008152506040518060200160405280600081525061010c610324565b50610807620f66f76040518060400160405280600681526020017f4c6567696f6e000000000000000000000000000000000000000000000000000081525060405180602001604052806000815250605e610324565b5061085c620f66276040518060400160405280600581526020017f426c616465000000000000000000000000000000000000000000000000000000815250604051806020016040528060008152506067610324565b506108bb620f67a96040518060400160405280600981526020017f5368616e672d436869000000000000000000000000000000000000000000000081525060405180610120016040528060e181526020016114e960e1913960f9610324565b50565b60008060028054905014156108d65760009050610909565b60006004600084815260200190815260200160002054905060006003600083815260200190815260200160002054119150505b919050565b600080606080600061091f866108be565b15610a91576000600261093188610cb4565b815481106109425761094161137d565b5b90600052602060002090600502019050806000015481600101548260020183600301846004015482805461097590611424565b80601f01602080910402602001604051908101604052809291908181526020018280546109a190611424565b80156109ee5780601f106109c3576101008083540402835291602001916109ee565b820191906000526020600020905b8154815290600101906020018083116109d157829003601f168201915b50505050509250818054610a0190611424565b80601f0160208091040260200160405190810160405280929190818152602001828054610a2d90611424565b8015610a7a5780601f10610a4f57610100808354040283529160200191610a7a565b820191906000526020600020905b815481529060010190602001808311610a5d57829003601f168201915b505050505091509550955095509550955050610ac3565b600080600060405180602001604052806000815250906040518060200160405280600081525090945094509450945094505b91939590929450565b610ad4610bc4565b73ffffffffffffffffffffffffffffffffffffffff16610af261059f565b73ffffffffffffffffffffffffffffffffffffffff1614610b48576040517f08c379a0000000000000000000000000000000000000000000000000000000008152600401610b3f906112fa565b60405180910390fd5b600073ffffffffffffffffffffffffffffffffffffffff168173ffffffffffffffffffffffffffffffffffffffff161415610bb8576040517f08c379a0000000000000000000000000000000000000000000000000000000008152600401610baf906114c8565b60405180910390fd5b610bc181610bcc565b50565b600033905090565b60008060009054906101000a900473ffffffffffffffffffffffffffffffffffffffff169050816000806101000a81548173ffffffffffffffffffffffffffffffffffffffff021916908373ffffffffffffffffffffffffffffffffffffffff1602179055508173ffffffffffffffffffffffffffffffffffffffff168173ffffffffffffffffffffffffffffffffffffffff167f8be0079c531659141344cd1fd0a4f28419497f9722a3daafe3b4186f6b6457e060405160405180910390a35050565b6001816000016000828254019250508190555050565b600081600001549050919050565b600060036000838152602001908152602001600020549050919050565b828054610cdd90611424565b90600052602060002090601f016020900481019282610cff5760008555610d46565b82601f10610d1857805160ff1916838001178555610d46565b82800160010185558215610d46579182015b82811115610d45578251825591602001919060010190610d2a565b5b509050610d539190610d57565b5090565b5b80821115610d70576000816000905550600101610d58565b5090565b6000604051905090565b600080fd5b600080fd5b6000819050919050565b610d9b81610d88565b8114610da657600080fd5b50565b600081359050610db881610d92565b92915050565b600060208284031215610dd457610dd3610d7e565b5b6000610de284828501610da9565b91505092915050565b610df481610d88565b82525050565b600081519050919050565b600082825260208201905092915050565b60005b83811015610e34578082015181840152602081019050610e19565b83811115610e43576000848401525b50505050565b6000601f19601f8301169050919050565b6000610e6582610dfa565b610e6f8185610e05565b9350610e7f818560208601610e16565b610e8881610e49565b840191505092915050565b600060a082019050610ea86000830188610deb565b610eb56020830187610deb565b8181036040830152610ec78186610e5a565b90508181036060830152610edb8185610e5a565b9050610eea6080830184610deb565b9695505050505050565b60008115159050919050565b610f0981610ef4565b82525050565b6000602082019050610f246000830184610f00565b92915050565b600073ffffffffffffffffffffffffffffffffffffffff82169050919050565b6000610f5582610f2a565b9050919050565b610f6581610f4a565b82525050565b6000602082019050610f806000830184610f5c565b92915050565b6000602082019050610f9b6000830184610deb565b92915050565b600080fd5b600080fd5b7f4e487b7100000000000000000000000000000000000000000000000000000000600052604160045260246000fd5b610fe382610e49565b810181811067ffffffffffffffff8211171561100257611001610fab565b5b80604052505050565b6000611015610d74565b90506110218282610fda565b919050565b600067ffffffffffffffff82111561104157611040610fab565b5b61104a82610e49565b9050602081019050919050565b82818337600083830152505050565b600061107961107484611026565b61100b565b90508281526020810184848401111561109557611094610fa6565b5b6110a0848285611057565b509392505050565b600082601f8301126110bd576110bc610fa1565b5b81356110cd848260208601611066565b91505092915050565b600080600080608085870312156110f0576110ef610d7e565b5b60006110fe87828801610da9565b945050602085013567ffffffffffffffff81111561111f5761111e610d83565b5b61112b878288016110a8565b935050604085013567ffffffffffffffff81111561114c5761114b610d83565b5b611158878288016110a8565b925050606061116987828801610da9565b91505092959194509250565b600081519050919050565b600082825260208201905092915050565b6000819050602082019050919050565b6111aa81610d88565b82525050565b60006111bc83836111a1565b60208301905092915050565b6000602082019050919050565b60006111e082611175565b6111ea8185611180565b93506111f583611191565b8060005b8381101561122657815161120d88826111b0565b9750611218836111c8565b9250506001810190506111f9565b5085935050505092915050565b6000602082019050818103600083015261124d81846111d5565b905092915050565b61125e81610f4a565b811461126957600080fd5b50565b60008135905061127b81611255565b92915050565b60006020828403121561129757611296610d7e565b5b60006112a58482850161126c565b91505092915050565b7f4f776e61626c653a2063616c6c6572206973206e6f7420746865206f776e6572600082015250565b60006112e4602083610e05565b91506112ef826112ae565b602082019050919050565b60006020820190508181036000830152611313816112d7565b9050919050565b7f4e487b7100000000000000000000000000000000000000000000000000000000600052601160045260246000fd5b600061135482610d88565b915061135f83610d88565b9250828210156113725761137161131a565b5b828203905092915050565b7f4e487b7100000000000000000000000000000000000000000000000000000000600052603260045260246000fd5b60006113b782610d88565b91507fffffffffffffffffffffffffffffffffffffffffffffffffffffffffffffffff8214156113ea576113e961131a565b5b600182019050919050565b7f4e487b7100000000000000000000000000000000000000000000000000000000600052602260045260246000fd5b6000600282049050600182168061143c57607f821691505b602082108114156114505761144f6113f5565b5b50919050565b7f4f776e61626c653a206e6577206f776e657220697320746865207a65726f206160008201527f6464726573730000000000000000000000000000000000000000000000000000602082015250565b60006114b2602683610e05565b91506114bd82611456565b604082019050919050565b600060208201905081810360008301526114e1816114a5565b905091905056fe5368616e672d4368692069732074686520736f6e206f6620616e20696e7465726e6174696f6e616c6c792d72656e6f776e656420616e6420706f77657266756c206372696d696e616c206d61737465726d696e642077686f7365206368696c64686f6f64207761732061206c6f6e656c79206f6e652c2066756c6c206f6620636f6e7374616e7420747261696e696e6720696e207269676f726f7573206d656e74616c20616e64206d61727469616c20617274732c2077697468206f6e6c79206c696d6974656420636f6e7461637420776974682068697320706172656e74732e42697474656e206279206120726164696f616374697665207370696465722c2068696768207363686f6f6c2073747564656e74205065746572205061726b6572206761696e6564207468652073706565642c20737472656e67746820616e6420706f77657273206f662061207370696465722e2041646f7074696e6720746865206e616d65205370696465722d4d616e2c20506574657220686f70656420746f207374617274206120636172656572207573696e6720686973206e6577206162696c69746965732e205461756768742074686174207769746820677265617420706f77657220636f6d657320677265617420726573706f6e736962696c6974792c205370696465792068617320766f77656420746f207573652068697320706f7765727320746f2068656c702070656f706c652e4162616e646f6e656420627920686973206d6f746865722c204d617474204d7572646f636b207761732072616973656420627920686973206661746865722c20626f7865722027426174746c696e67204a61636b27204d7572646f636b2c20696e2048656c6c2773204b69746368656e2e205265616c697a696e6720746861742072756c65732077657265206e656564656420746f2070726576656e742070656f706c652066726f6d206265686176696e67206261646c792c20796f756e67204d617474206465636964656420746f207374756479206c61773b20686f77657665722c207768656e2068652073617665642061206d616e2066726f6d20616e206f6e636f6d696e6720747275636b2c206974207370696c6c6564206120726164696f61637469766520636172676f20746861742072656e6465726564204d61747420626c696e64207768696c6520656e68616e63696e67206869732072656d61696e696e672073656e7365732e20556e6465722074686520686172736820747574656c616765206f6620626c696e64206d61727469616c2061727473206d617374657220537469636b2c204d617474206d617374657265642068697320686569676874656e65642073656e73657320616e6420626563616d65206120666f726d696461626c6520666967687465722ea2646970667358221220d59146f82c49ec89b54940b0741cb58b6b25f63243b24127cd159146014bf08e64736f6c634300080a0033",
  "immutableReferences": {},
  "source": "// SPDX-License-Identifier: MIT\npragma solidity >=0.4.22 <0.9.0;\n\nimport \"@openzeppelin/contracts/access/Ownable.sol\";\nimport \"@openzeppelin/contracts/utils/Counters.sol\";\n\ncontract MarvelCharactersOracle is Ownable {\n    using Counters for Counters.Counter;\n    Counters.Counter private _characterIdCounter;\n\n    Character[] characters;\n\n    mapping(uint256 => uint256) _charIdToIndex;\n    mapping(uint256 => uint256) _marvelIdToId;\n\n    struct Character {\n        uint256 id;\n        uint256 marvelId;\n        string name;\n        string description;\n        uint256 appearances;\n    }\n\n    /// @notice Used to test the connection with the client\n    /// @return Always `true`\n    function testConnection() public pure returns (bool) {\n        return true;\n    }\n\n    /// @notice Retrieves this contract's address\n    /// @return The contract address\n    function getAddress() public view returns (address) {\n        return address(this);\n    }\n\n    /// @notice Checks whether an entry exists for the given Marvel Comics character ID\n    /// @param _marvelId The Marvel Comics character ID to check\n    /// @return `true` if it exists, else `false`\n    function characterExists(uint256 _marvelId) public view returns (bool) {\n        if (characters.length == 0) {\n            return false;\n        }\n\n        uint256 charId = _marvelIdToId[_marvelId];\n\n        return _charIdToIndex[charId] > 0;\n    }\n\n    /// @notice Retrieve the IDs of all the characters stored in the contract\n    /// @return An array of unique character IDs\n    function getAllCharacters() public view returns (uint256[] memory) {\n        uint256[] memory ret = new uint256[](characters.length);\n\n        if (characters.length > 0) {\n            for (uint256 i = 0; i < characters.length; i++) {\n                ret[i] = characters[i].id;\n            }\n        }\n\n        return ret;\n    }\n\n    /// @notice Returns the index of a character from a given ID\n    /// @param _charId The character ID\n    /// @return An array index\n    function _getCharacterIndexFromId(uint256 _charId)\n        private\n        view\n        returns (uint256)\n    {\n        return _charIdToIndex[_charId];\n    }\n\n    /// @notice Returns a character from a given ID\n    /// @param _charId The character ID\n    /// @return The character data if it exists, `(0, 0, \"\", \"\", 0)` otherwise\n    function getCharacterById(uint256 _charId)\n        public\n        view\n        returns (\n            uint256,\n            uint256,\n            string memory,\n            string memory,\n            uint256\n        )\n    {\n        // If the character exists\n        if (characterExists(_charId)) {\n            // Retrieve character data\n            Character storage retrieved = characters[\n                _getCharacterIndexFromId(_charId)\n            ];\n\n            // Return the character data\n            return (\n                retrieved.id,\n                retrieved.marvelId,\n                retrieved.name,\n                retrieved.description,\n                retrieved.appearances\n            );\n        }\n\n        // Else, return empty character data\n        return (0, 0, \"\", \"\", 0);\n    }\n\n    /// @notice Returns a character from a given Marvel ID\n    /// @param _marvelId The character's Marvel ID\n    /// @return The character data if it exists, `(0, 0, \"\", \"\", 0)` otherwise\n    function getCharacterByMarvelId(uint256 _marvelId)\n        public\n        view\n        returns (\n            uint256,\n            uint256,\n            string memory,\n            string memory,\n            uint256\n        )\n    {\n        // Retrieve the character data by ID\n        return getCharacterById(_marvelIdToId[_marvelId]);\n    }\n\n    /// @notice Returns the number of characters in the array\n    /// @return The number of characters in the array\n    function getNumberOfCharacters() public view returns (uint256) {\n        // Return the length of the array\n        return characters.length;\n    }\n\n    /// @notice Adds a new Marvel character into the blockchain\n    /// @param _marvelId The character's ID in the Marvel Comics API - ex: 1009610\n    /// @param _name The character's name - ex: Spider-Man (Peter Parker)\n    /// @param _description The character's description in the Marvel Comics API - ex: \"Bitten by a radioactive spider, high school student Peter Parker gained the speed, strength and powers of a spider. Adopting the name Spider-Man, Peter hoped to start a career using his new abilities. Taught that with great power comes great responsibility, Spidey has vowed to use his powers to help people.\"\n    /// @param _appearances The number of comics the character appears in - ex: 4098\n    /// @return the unique id of the newly created match\n    function addCharacter(\n        uint256 _marvelId,\n        string memory _name,\n        string memory _description,\n        uint256 _appearances\n    ) public onlyOwner returns (uint256) {\n        // Making sure that this character doesn't already exist\n        require(!characterExists(_marvelId));\n\n        // Starting IDs from 1 and not 0:\n        _characterIdCounter.increment();\n\n        // Get new incremental unique ID\n        uint256 id = _characterIdCounter.current();\n\n        // Adding the new character to the array\n        characters.push(\n            Character(id, _marvelId, _name, _description, _appearances)\n        );\n\n        // Updating the mappings\n        uint256 newIndex = characters.length - 1;\n\n        _charIdToIndex[id] = newIndex;\n        _marvelIdToId[_marvelId] = id;\n\n        // Returning the ID of the newly added character\n        return id;\n    }\n\n    /// @notice Adds data to the contract for testing\n    function addTestData() external onlyOwner {\n        addCharacter(\n            1009610,\n            \"Spider-Man (Peter Parker)\",\n            \"Bitten by a radioactive spider, high school student Peter Parker gained the speed, strength and powers of a spider. Adopting the name Spider-Man, Peter hoped to start a career using his new abilities. Taught that with great power comes great responsibility, Spidey has vowed to use his powers to help people.\",\n            4098\n        );\n        addCharacter(\n            1009262,\n            \"Daredevil\",\n            \"Abandoned by his mother, Matt Murdock was raised by his father, boxer 'Battling Jack' Murdock, in Hell's Kitchen. Realizing that rules were needed to prevent people from behaving badly, young Matt decided to study law; however, when he saved a man from an oncoming truck, it spilled a radioactive cargo that rendered Matt blind while enhancing his remaining senses. Under the harsh tutelage of blind martial arts master Stick, Matt mastered his heightened senses and became a formidable fighter.\",\n            1195\n        );\n        addCharacter(1011339, \"Blue Marvel\", \"\", 31);\n        addCharacter(1009452, \"Moon Knight\", \"\", 268);\n        addCharacter(1009399, \"Legion\", \"\", 94);\n        addCharacter(1009191, \"Blade\", \"\", 103);\n        addCharacter(\n            1009577,\n            \"Shang-Chi\",\n            \"Shang-Chi is the son of an internationally-renowned and powerful criminal mastermind whose childhood was a lonely one, full of constant training in rigorous mental and martial arts, with only limited contact with his parents.\",\n            249\n        );\n    }\n}\n",
  "sourcePath": "E:\\DEV\\Efrei\\M2\\Blockchain\\blockchain-oracle-project\\contracts\\MarvelCharactersOracle.sol",
  "compiler": {
    "name": "solc",
    "version": "0.8.10+commit.fc410830.Emscripten.clang"
  },
  "schemaVersion": "3.4.4",
  "updatedAt": "2022-02-27T19:22:31.498Z",
  "networkType": "ethereum",
  "devdoc": {
    "kind": "dev",
    "methods": {
      "addCharacter(uint256,string,string,uint256)": {
        "params": {
          "_appearances": "The number of comics the character appears in - ex: 4098",
          "_description": "The character's description in the Marvel Comics API - ex: \"Bitten by a radioactive spider, high school student Peter Parker gained the speed, strength and powers of a spider. Adopting the name Spider-Man, Peter hoped to start a career using his new abilities. Taught that with great power comes great responsibility, Spidey has vowed to use his powers to help people.\"",
          "_marvelId": "The character's ID in the Marvel Comics API - ex: 1009610",
          "_name": "The character's name - ex: Spider-Man (Peter Parker)"
        },
        "returns": {
          "_0": "the unique id of the newly created match"
        }
      },
      "characterExists(uint256)": {
        "params": {
          "_marvelId": "The Marvel Comics character ID to check"
        },
        "returns": {
          "_0": "`true` if it exists, else `false`"
        }
      },
      "getAddress()": {
        "returns": {
          "_0": "The contract address"
        }
      },
      "getAllCharacters()": {
        "returns": {
          "_0": "An array of unique character IDs"
        }
      },
      "getCharacterById(uint256)": {
        "params": {
          "_charId": "The character ID"
        },
        "returns": {
          "_0": "The character data if it exists, `(0, 0, \"\", \"\", 0)` otherwise"
        }
      },
      "getCharacterByMarvelId(uint256)": {
        "params": {
          "_marvelId": "The character's Marvel ID"
        },
        "returns": {
          "_0": "The character data if it exists, `(0, 0, \"\", \"\", 0)` otherwise"
        }
      },
      "getNumberOfCharacters()": {
        "returns": {
          "_0": "The number of characters in the array"
        }
      },
      "owner()": {
        "details": "Returns the address of the current owner."
      },
      "renounceOwnership()": {
        "details": "Leaves the contract without owner. It will not be possible to call `onlyOwner` functions anymore. Can only be called by the current owner. NOTE: Renouncing ownership will leave the contract without an owner, thereby removing any functionality that is only available to the owner."
      },
      "testConnection()": {
        "returns": {
          "_0": "Always `true`"
        }
      },
      "transferOwnership(address)": {
        "details": "Transfers ownership of the contract to a new account (`newOwner`). Can only be called by the current owner."
      }
    },
    "version": 1
  },
  "userdoc": {
    "kind": "user",
    "methods": {
      "addCharacter(uint256,string,string,uint256)": {
        "notice": "Adds a new Marvel character into the blockchain"
      },
      "addTestData()": {
        "notice": "Adds data to the contract for testing"
      },
      "characterExists(uint256)": {
        "notice": "Checks whether an entry exists for the given Marvel Comics character ID"
      },
      "getAddress()": {
        "notice": "Retrieves this contract's address"
      },
      "getAllCharacters()": {
        "notice": "Retrieve the IDs of all the characters stored in the contract"
      },
      "getCharacterById(uint256)": {
        "notice": "Returns a character from a given ID"
      },
      "getCharacterByMarvelId(uint256)": {
        "notice": "Returns a character from a given Marvel ID"
      },
      "getNumberOfCharacters()": {
        "notice": "Returns the number of characters in the array"
      },
      "testConnection()": {
        "notice": "Used to test the connection with the client"
      }
    },
    "version": 1
  }
}